{
	"data": {
		"bytecode": {
			"linkReferences": {},
			"object": "6080604052600c60005534801561001557600080fd5b50610175806100256000396000f3fe608060405234801561001057600080fd5b506004361061002b5760003560e01c80634543e91814610030575b600080fd5b61003861004e565b604051610045919061007d565b60405180910390f35b6000600260005461005f91906100c7565b905090565b6000819050919050565b61007781610064565b82525050565b6000602082019050610092600083018461006e565b92915050565b7f4e487b7100000000000000000000000000000000000000000000000000000000600052601160045260246000fd5b60006100d282610064565b91506100dd83610064565b92508282026100eb81610064565b91507f8000000000000000000000000000000000000000000000000000000000000000841460008412161561012357610122610098565b5b828205841483151761013857610137610098565b5b509291505056fea2646970667358221220f16e24356e8f2b81d9ca039ae63f6f5dbf0c40317f189eb43dd1ef13cc7f9e6a64736f6c63430008120033",
			"opcodes": "PUSH1 0x80 PUSH1 0x40 MSTORE PUSH1 0xC PUSH1 0x0 SSTORE CALLVALUE DUP1 ISZERO PUSH2 0x15 JUMPI PUSH1 0x0 DUP1 REVERT JUMPDEST POP PUSH2 0x175 DUP1 PUSH2 0x25 PUSH1 0x0 CODECOPY PUSH1 0x0 RETURN INVALID PUSH1 0x80 PUSH1 0x40 MSTORE CALLVALUE DUP1 ISZERO PUSH2 0x10 JUMPI PUSH1 0x0 DUP1 REVERT JUMPDEST POP PUSH1 0x4 CALLDATASIZE LT PUSH2 0x2B JUMPI PUSH1 0x0 CALLDATALOAD PUSH1 0xE0 SHR DUP1 PUSH4 0x4543E918 EQ PUSH2 0x30 JUMPI JUMPDEST PUSH1 0x0 DUP1 REVERT JUMPDEST PUSH2 0x38 PUSH2 0x4E JUMP JUMPDEST PUSH1 0x40 MLOAD PUSH2 0x45 SWAP2 SWAP1 PUSH2 0x7D JUMP JUMPDEST PUSH1 0x40 MLOAD DUP1 SWAP2 SUB SWAP1 RETURN JUMPDEST PUSH1 0x0 PUSH1 0x2 PUSH1 0x0 SLOAD PUSH2 0x5F SWAP2 SWAP1 PUSH2 0xC7 JUMP JUMPDEST SWAP1 POP SWAP1 JUMP JUMPDEST PUSH1 0x0 DUP2 SWAP1 POP SWAP2 SWAP1 POP JUMP JUMPDEST PUSH2 0x77 DUP2 PUSH2 0x64 JUMP JUMPDEST DUP3 MSTORE POP POP JUMP JUMPDEST PUSH1 0x0 PUSH1 0x20 DUP3 ADD SWAP1 POP PUSH2 0x92 PUSH1 0x0 DUP4 ADD DUP5 PUSH2 0x6E JUMP JUMPDEST SWAP3 SWAP2 POP POP JUMP JUMPDEST PUSH32 0x4E487B7100000000000000000000000000000000000000000000000000000000 PUSH1 0x0 MSTORE PUSH1 0x11 PUSH1 0x4 MSTORE PUSH1 0x24 PUSH1 0x0 REVERT JUMPDEST PUSH1 0x0 PUSH2 0xD2 DUP3 PUSH2 0x64 JUMP JUMPDEST SWAP2 POP PUSH2 0xDD DUP4 PUSH2 0x64 JUMP JUMPDEST SWAP3 POP DUP3 DUP3 MUL PUSH2 0xEB DUP2 PUSH2 0x64 JUMP JUMPDEST SWAP2 POP PUSH32 0x8000000000000000000000000000000000000000000000000000000000000000 DUP5 EQ PUSH1 0x0 DUP5 SLT AND ISZERO PUSH2 0x123 JUMPI PUSH2 0x122 PUSH2 0x98 JUMP JUMPDEST JUMPDEST DUP3 DUP3 SDIV DUP5 EQ DUP4 ISZERO OR PUSH2 0x138 JUMPI PUSH2 0x137 PUSH2 0x98 JUMP JUMPDEST JUMPDEST POP SWAP3 SWAP2 POP POP JUMP INVALID LOG2 PUSH5 0x6970667358 0x22 SLT KECCAK256 CALL PUSH15 0x24356E8F2B81D9CA039AE63F6F5DBF 0xC BLOCKHASH BALANCE PUSH32 0x189EB43DD1EF13CC7F9E6A64736F6C6343000812003300000000000000000000 "
		},
		"gasEstimates": {
			"creation": {
				"codeDepositCost": "74600",
				"executionCost": "22229",
				"totalCost": "96829"
			},
			"external": {
				"dobraNumero()": "infinite"
			}
		},
		"methodIdentifiers": {
			"dobraNumero()": "4543e918"
		}
	},
	"abi": [
		{
			"inputs": [],
			"name": "dobraNumero",
			"outputs": [
				{
					"internalType": "int256",
					"name": "",
					"type": "int256"
				}
			],
			"stateMutability": "view",
			"type": "function"
		}
	]
}